30606513433HH      735CMM          MAAAAMMDD HHMMSS                                                                                                                                                                                                                                                          
23216574524DNI000000000000216574520NI11000000043000000217000000000202206                                                                                                                                                                                                                                 
20172334831DNI000000000000172334830NI11000000007000000028000000000202206                                                                                                                                                                                                                                 
20234753658DNI000000000000234753650NI11000000049000000233000000000202206                                                                                                                                                                                                                                 
23238389534DNI000000000000238389530NI11000000045000000182000000000202206                                                                                                                                                                                                                                 
27172542560DNI000000000000172542560NI11000000021000000077000000000202206                                                                                                                                                                                                                                 
27216498793DNI000000000000216498790NI11000000014000000045000000000202206                                                                                                                                                                                                                                 
20178677560DNI000000000000178677560NI11000000035000000133000000000202206                                                                                                                                                                                                                                 
23218562884DNI000000000000218562880NI11000000027000000194000000000202206                                                                                                                                                                                                                                 
27227809081DNI000000000000227809080NI11000000036000000158000000000202206                                                                                                                                                                                                                                 
20243005605DNI000000000000243005600NI11000000026000000134000000000202206                                                                                                                                                                                                                                 
20283954235DNI000000000000283954230NI11000000016000000016000000000202206                                                                                                                                                                                                                                 
20272262994DNI000000000000272262990NI43000000008000000015000000045202206                                                                                                                                                                                                                                 
23229923544DNI000000000000229923540NI11000000051000000262000000000202206                                                                                                                                                                                                                                 
20274328623DNI000000000000274328620NI11000000014000000102000000000202206                                                                                                                                                                                                                                 
27250839109DNI000000000000250839100NI11000000024000000187000000000202206                                                                                                                                                                                                                                 
23139253434DNI000000000000139253430NIF1000000000000000000000000000202206                                                                                                                                                                                                                                 
27314646512DNI000000000000314646510NI11000000021000000084000000000202206                                                                                                                                                                                                                                 
27286968150DNI000000000000286968150NI11000000004000000018000000001202206                                                                                                                                                                                                                                 
27372809642DNI000000000000372809640NI11000000018000000070000000000202206                                                                                                                                                                                                                                 
27284227935DNI000000000000284227930NI11000000005000000063000000000202206                                                                                                                                                                                                                                 
20216365772DNI000000000000216365770NI11000000021000000102000000000202206                                                                                                                                                                                                                                 
20214740266DNI000000000000214740260NI11000000047000000230000000000202206                                                                                                                                                                                                                                 
20249232875DNI000000000000249232870NI11000000012000000097000000000202206                                                                                                                                                                                                                                 
20346834219DNI000000000000346834210NI11000000024000000113000000000202206                                                                                                                                                                                                                                 
27104124416DNI000000000000104124410NI11000000008000000113000000000202206                                                                                                                                                                                                                                 
27135659229DNI000000000000135659220NI11000000004000000060000000000202206                                                                                                                                                                                                                                 
27051470694DNI000000000000051470690NI11000000001000000015000000000202206                                                                                                                                                                                                                                 
20177851966DNI000000000000177851960NI11000000001000000008000000000202206                                                                                                                                                                                                                                 
20043912098DNI000000000000043912090NI11000000003000000070000000000202206                                                                                                                                                                                                                                 
20054126469DNI000000000000054126460NI11000000007000000126000000000202206                                                                                                                                                                                                                                 
20077422022DNI000000000000077422020NI11000000005000000079000000000202206                                                                                                                                                                                                                                 
27065298126DNI000000000000065298120NI11000000003000000061000000000202206                                                                                                                                                                                                                                 
27204098080DNI000000000000204098080NI11000000003000000061000000000202206                                                                                                                                                                                                                                 
20076026344DNI000000000000076026340NI11000000013000000221000000000202206                                                                                                                                                                                                                                 
20221952864DNI000000000000221952860NI11000000003000000051000000000202206                                                                                                                                                                                                                                 
27062069932DNI000000000000062069930NI11000000007000000140000000000202206                                                                                                                                                                                                                                 
27208806586DNI000000000000208806580NI11000000001000000009000000000202206                                                                                                                                                                                                                                 
27117399139DNI000000000000117399130NI11000000010000000154000000000202206                                                                                                                                                                                                                                 
27050779527DNI000000000000050779520NI11000000001000000011000000000202206                                                                                                                                                                                                                                 
27163652310DNI000000000000163652310NI11000000002000000044000000000202206                                                                                                                                                                                                                                 
20042072657DNI000000000000042072650NI11000000001000000014000000000202206                                                                                                                                                                                                                                 
23125800084DNI000000000000125800080NI11000000003000000042000000000202206                                                                                                                                                                                                                                 
27169596099DNI000000000000169596090NI11000000004000000084000000000202206                                                                                                                                                                                                                                 
20050729681DNI000000000000050729680NI11000000001000000020000000000202206                                                                                                                                                                                                                                 
20072070527DNI000000000000072070520NI11000000002000000032000000000202206                                                                                                                                                                                                                                 
20085142861DNI000000000000085142860NI11000000007000000111000000000202206                                                                                                                                                                                                                                 
27121371958DNI000000000000121371950NI11000000001000000039000000000202206                                                                                                                                                                                                                                 
23923460799DNI000000000000923460790NI11000000005000000104000000000202206                                                                                                                                                                                                                                 
27139481637DNI000000000000139481630NI11000000008000000137000000000202206                                                                                                                                                                                                                                 
20077623125DNI000000000000077623120NI11000000000000000002000000000202206                                                                                                                                                                                                                                 
20071233481DNI000000000000071233480NI11000000001000000023000000000202206                                                                                                                                                                                                                                 
20071205585DNI000000000000071205580NI11000000001000000008000000000202206                                                                                                                                                                                                                                 
27046021466DNI000000000000046021460NI11000000002000000040000000000202206                                                                                                                                                                                                                                 
20160210487DNI000000000000160210480NI11000000001000000019000000000202206                                                                                                                                                                                                                                 
27124634216DNI000000000000124634210NI11000000004000000074000000000202206                                                                                                                                                                                                                                 
27046770221DNI000000000000046770220NI11000000002000000044000000000202206                                                                                                                                                                                                                                 
27067105503DNI000000000000067105500NI11000000006000000101000000000202206                                                                                                                                                                                                                                 
27057150977DNI000000000000057150970NI11000000006000000102000000000202206                                                                                                                                                                                                                                 
20081185248DNI000000000000081185240NI11000000002000000046000000000202206                                                                                                                                                                                                                                 
27056183820DNI000000000000056183820NI11000000004000000074000000000202206                                                                                                                                                                                                                                 
27068402706DNI000000000000068402700NI11000000008000000119000000000202206                                                                                                                                                                                                                                 
20077614746DNI000000000000077614740NI11000000001000000008000000000202206                                                                                                                                                                                                                                 
27044230688DNI000000000000044230680NI11000000001000000041000000000202206                                                                                                                                                                                                                                 
27054292770DNI000000000000054292770NI11000000007000000120000000000202206                                                                                                                                                                                                                                 
20085342410DNI000000000000085342410NI11000000006000000111000000000202206                                                                                                                                                                                                                                 
27061315441DNI000000000000061315440NI11000000001000000011000000000202206                                                                                                                                                                                                                                 
27129891829DNI000000000000129891820NI11000000006000000112000000000202206                                                                                                                                                                                                                                 
20077736213DNI000000000000077736210NI11000000005000000103000000000202206                                                                                                                                                                                                                                 
27379903288DNI000000000000379903280NI11000000002000000032000000000202206                                                                                                                                                                                                                                 
20933767753DNI000000000000933767750NI11000000001000000022000000000202206                                                                                                                                                                                                                                 
27061940095DNI000000000000061940090NI11000000007000000143000000000202206                                                                                                                                                                                                                                 
27046232130DNI000000000000046232130NI11000000001000000011000000000202206                                                                                                                                                                                                                                 
27062802362DNI000000000000062802360NI11000000001000000010000000000202206                                                                                                                                                                                                                                 
27053289075DNI000000000000053289070NI11000000003000000036000000000202206                                                                                                                                                                                                                                 
27044281916DNI000000000000044281910NI11000000001000000011000000000202206                                                                                                                                                                                                                                 
27059288798DNI000000000000059288790NI11000000001000000016000000000202206                                                                                                                                                                                                                                 
27923564352DNI000000000000923564350NI11000000001000000023000000000202206                                                                                                                                                                                                                                 
20076784389DNI000000000000076784380NI11000000003000000062000000000202206                                                                                                                                                                                                                                 
24059713708DNI000000000000059713700NI11000000002000000033000000000202206                                                                                                                                                                                                                                 
27925055080DNI000000000000925055080NI11000000000000000008000000000202206                                                                                                                                                                                                                                 
20921871059DNI000000000000921871050NI11000000001000000011000000000202206                                                                                                                                                                                                                                 
20077886460DNI000000000000077886460NI11000000001000000041000000000202206                                                                                                                                                                                                                                 
20149044907DNI000000000000149044900NI11000000002000000044000000000202206                                                                                                                                                                                                                                 
20083437236DNI000000000000083437230NI11000000004000000082000000000202206                                                                                                                                                                                                                                 
27928916877DNI000000000000928916870NI11000000008000000124000000000202206                                                                                                                                                                                                                                 
23085402269DNI000000000000085402260NI11000000001000000010000000000202206                                                                                                                                                                                                                                 
20072590032DNI000000000000072590030NI11000000001000000019000000000202206                                                                                                                                                                                                                                 
27035750121DNI000000000000035750120NI11000000010000000168000000000202206                                                                                                                                                                                                                                 
23200536894DNI000000000000200536890NI11000000001000000029000000000202206                                                                                                                                                                                                                                 
27184159045DNI000000000000184159040NI11000000001000000015000000000202206                                                                                                                                                                                                                                 
20056745298DNI000000000000056745290NI11000000006000000117000000000202206                                                                                                                                                                                                                                 
20116847206DNI000000000000116847200NI11000000001000000039000000000202206                                                                                                                                                                                                                                 
27056758149DNI000000000000056758140NI11000000004000000070000000000202206                                                                                                                                                                                                                                 
27057545645DNI000000000000057545640NI11000000001000000041000000000202206                                                                                                                                                                                                                                 
20071838847DNI000000000000071838840NI11000000004000000082000000000202206                                                                                                                                                                                                                                 
27053772817DNI000000000000053772810NI11000000005000000106000000000202206                                                                                                                                                                                                                                 
27053946122DNI000000000000053946120NI11000000001000000019000000000202206                                                                                                                                                                                                                                 
27046135259DNI000000000000046135250NI11000000005000000083000000000202206                                                                                                                                                                                                                                 
20110632022DNI000000000000110362020NI11000000005000000101000000000202206                                                                                                                                                                                                                                 
27039166637DNI000000000000039166630NI11000000002000000029000000000202206                                                                                                                                                                                                                                 
27056839300DNI000000000000056839300NI11000000006000000061000000000202206                                                                                                                                                                                                                                 
20149268198DNI000000000000149268190NI11000000001000000012000000000202206                                                                                                                                                                                                                                 
27052415816DNI000000000000052415810NI11000000001000000035000000000202206                                                                                                                                                                                                                                 
27121025480DNI000000000000121025480NI11000000000000000002000000000202206                                                                                                                                                                                                                                 
27063808100DNI000000000000063808100NI11000000001000000039000000000202206                                                                                                                                                                                                                                 
27181971067DNI000000000000181971060NI11000000001000000035000000000202206                                                                                                                                                                                                                                 
27060605926DNI000000000000060605920NI11000000005000000104000000000202206                                                                                                                                                                                                                                 
27049586413DNI000000000000049586410NI11000000004000000068000000000202206                                                                                                                                                                                                                                 
27056670551DNI000000000000056670550NI11000000007000000121000000000202206                                                                                                                                                                                                                                 
27120159979DNI000000000000120159970NI11000000007000000119000000000202206                                                                                                                                                                                                                                 
20936469885DNI000000000000936469880NI11000000006000000093000000000202206                                                                                                                                                                                                                                 
27932662006DNI000000000000932662000NI11000000003000000072000000000202206                                                                                                                                                                                                                                 
23052788684DNI000000000000052788680NI11000000004000000066000000000202206                                                                                                                                                                                                                                 
27102016802DNI000000000000102016800NI11000000007000000120000000000202206                                                                                                                                                                                                                                 
27108879705DNI000000000000108879700NI11000000007000000122000000000202206                                                                                                                                                                                                                                 
27055713370DNI000000000000055713370NI11000000002000000024000000000202206                                                                                                                                                                                                                                 
27063844670DNI000000000000063844670NI11000000004000000072000000000202206                                                                                                                                                                                                                                 
27102087394DNI000000000000102087390NI11000000002000000044000000000202206                                                                                                                                                                                                                                 
27116027815DNI000000000000116027810NI11000000001000000023000000000202206                                                                                                                                                                                                                                 
27061872847DNI000000000000061872840NI11000000003000000044000000000202206                                                                                                                                                                                                                                 
27036827624DNI000000000000036827620NI11000000001000000039000000000202206                                                                                                                                                                                                                                 
27060590821DNI000000000000060590820NI11000000006000000112000000000202206                                                                                                                                                                                                                                 
27049586251DNI000000000000049586250NI11000000004000000078000000000202206                                                                                                                                                                                                                                 
20061433911DNI000000000000061433910NI11000000001000000015000000000202206                                                                                                                                                                                                                                 
27065571647DNI000000000000065571640NI11000000001000000041000000000202206                                                                                                                                                                                                                                 
27103943790DNI000000000000103943790NI11000000003000000056000000000202206                                                                                                                                                                                                                                 
20109838382DNI000000000000109838380NI11000000009000000154000000000202206                                                                                                                                                                                                                                 
20077708635DNI000000000000077708630NI11000000001000000037000000000202206                                                                                                                                                                                                                                 
27217944045DNI000000000000217944040NI11000000000000000017000000000202206                                                                                                                                                                                                                                 
20081325465DNI000000000000081325460NI11000000004000000076000000000202206                                                                                                                                                                                                                                 
27032667681DNI000000000000032667680NI11000000001000000015000000000202206                                                                                                                                                                                                                                 
23110625804DNI000000000000110625800NI11000000004000000052000000000202206                                                                                                                                                                                                                                 
20075939044DNI000000000000075939040NI11000000003000000051000000000202206                                                                                                                                                                                                                                 
27051958788DNI000000000000051958780NI11000000003000000058000000000202206                                                                                                                                                                                                                                 
20076998729DNI000000000000076998720NI11000000007000000137000000000202206                                                                                                                                                                                                                                 
27056841445DNI000000000000056841440NI11000000003000000056000000000202206                                                                                                                                                                                                                                 
27225186222DNI000000000000225186220NI11000000001000000014000000000202206                                                                                                                                                                                                                                 
27056735157DNI000000000000056735150NI11000000009000000160000000000202206                                                                                                                                                                                                                                 
20077614487DNI000000000000077614480NI11000000001000000041000000000202206                                                                                                                                                                                                                                 
27110360350DNI000000000000110360350NI11000000001000000022000000000202206                                                                                                                                                                                                                                 
27061467691DNI000000000000061467690NI11000000005000000083000000000202206                                                                                                                                                                                                                                 
27131991326DNI000000000000131991320NI11000000000000000006000000000202206                                                                                                                                                                                                                                 
27057322581DNI000000000000057322580NI11000000001000000016000000000202206                                                                                                                                                                                                                                 
20173347295DNI000000000000173347290NI11000000002000000044000000000202206                                                                                                                                                                                                                                 
27064295069DNI000000000000064295060NI11000000005000000101000000000202206                                                                                                                                                                                                                                 
27044693912DNI000000000000044693910NI11000000003000000067000000000202206                                                                                                                                                                                                                                 
27186491675DNI000000000000186491670NI11000000007000000100000000000202206                                                                                                                                                                                                                                 
23052670764DNI000000000000052670760NI11000000006000000096000000000202206                                                                                                                                                                                                                                 
27135263554DNI000000000000135263550NI11000000001000000014000000000202206                                                                                                                                                                                                                                 
27062069576DNI000000000000062069570NI11000000005000000106000000000202206                                                                                                                                                                                                                                 
27169723783DNI000000000000169723780NI11000000002000000031000000000202206                                                                                                                                                                                                                                 
27123664170DNI000000000000123664170NI11000000004000000061000000000202206                                                                                                                                                                                                                                 
27063846274DNI000000000000063846270NI11000000001000000004000000000202206                                                                                                                                                                                                                                 
27059482322DNI000000000000059482320NI11000000004000000069000000000202206                                                                                                                                                                                                                                 
27047284045DNI000000000000047284040NI11000000002000000041000000000202206                                                                                                                                                                                                                                 
20083923319DNI000000000000083923310NI11000000003000000055000000000202206                                                                                                                                                                                                                                 
20162138880DNI000000000000162138880NI11000000004000000084000000000202206                                                                                                                                                                                                                                 
27051927082DNI000000000000051927080NI11000000004000000086000000000202206                                                                                                                                                                                                                                 
20081309982DNI000000000000081309980NI11000000001000000008000000000202206                                                                                                                                                                                                                                 
27272226232DNI000000000000272226230NI11000000006000000108000000000202206                                                                                                                                                                                                                                 
20049714530DNI000000000000049714530NI11000000004000000091000000000202206                                                                                                                                                                                                                                 
20043084659DNI000000000000043084650NI11000000005000000089000000000202206                                                                                                                                                                                                                                 
27113047335DNI000000000000113047330NI11000000006000000070000000000202206                                                                                                                                                                                                                                 
20076529109DNI000000000000076529100NI11000000001000000012000000000202206                                                                                                                                                                                                                                 
20046872674DNI000000000000046872670NI11000000005000000099000000000202206                                                                                                                                                                                                                                 
27109902646DNI000000000000109902640NI11000000001000000022000000000202206                                                                                                                                                                                                                                 
20084327523DNI000000000000084327520NI11000000005000000083000000000202206                                                                                                                                                                                                                                 
27115465398DNI000000000000115465390NI11000000003000000057000000000202206                                                                                                                                                                                                                                 
20079021726DNI000000000000079021720NI11000000001000000021000000000202206                                                                                                                                                                                                                                 
27059723591DNI000000000000059723590NI11000000001000000014000000000202206                                                                                                                                                                                                                                 
27061581672DNI000000000000061581670NI11000000001000000039000000000202206                                                                                                                                                                                                                                 
20132966959DNI000000000000132966950NI11000000002000000033000000000202206                                                                                                                                                                                                                                 
20048888179DNI000000000000048888170NI11000000003000000071000000000202206                                                                                                                                                                                                                                 
27031937200DNI000000000000031937200NI11000000000000000005000000000202206                                                                                                                                                                                                                                 
23056806334DNI000000000000056806330NI11000000002000000029000000000202206                                                                                                                                                                                                                                 
27068467255DNI000000000000068467250NI11000000002000000033000000000202206                                                                                                                                                                                                                                 
27101313390DNI000000000000101313390NI11000000007000000122000000000202206                                                                                                                                                                                                                                 
27164367652DNI000000000000164367650NI11000000004000000077000000000202206                                                                                                                                                                                                                                 
27059639485DNI000000000000059639480NI11000000004000000065000000000202206                                                                                                                                                                                                                                 
27205929253DNI000000000000205929250NI11000000003000000045000000000202206                                                                                                                                                                                                                                 
20177853373DNI000000000000177853370NI11000000004000000021000000000202206                                                                                                                                                                                                                                 
27316015692DNI000000000000316015690NI53000000005000000058000000040202206                                                                                                                                                                                                                                 
20317989610DNI000000000000317989610NI11000000005000000011000000000202206                                                                                                                                                                                                                                 
20244760032DNI000000000000244760030NI11000000006000000032000000000202206                                                                                                                                                                                                                                 
20130303022DNI000000000000130303020NI11000000010000000010000000000202206                                                                                                                                                                                                                                 
23077780009DNI000000000000077780000NI11000000005000000052000000000202206                                                                                                                                                                                                                                 
27222003550DNI000000000000222003550NI11000000008000000078000000000202206                                                                                                                                                                                                                                 
27420118088DNI000000000000420118080NI21000000010000000091000000020202206                                                                                                                                                                                                                                 
20174749990DNI000000000000174749990CO11000000000000000042000000000202206                                                                                                                                                                                                                                 
27298574867DNI000000000000298574860CO11000000000000000096000000000202206                                                                                                                                                                                                                                 
20146566112DNI000000000000146566110CO11000000000000000037000000000202206                                                                                                                                                                                                                                 
24295128018DNI000000000000295128010CO11000000000000000064000000000202206                                                                                                                                                                                                                                 
20274382911DNI000000000000274382910CO11000000000000000042000000000202206                                                                                                                                                                                                                                 
27284191558DNI000000000000284191550CO11000000000000000035000000000202206                                                                                                                                                                                                                                 
20297985095DNI000000000000297985090CO11000000000000000021000000000202206                                                                                                                                                                                                                                 
20175617885DNI000000000000175617880CO22000000007000000044000000009202206                                                                                                                                                                                                                                 
23130651569DNI000000000000130651560CO11000000000000000014000000000202206                                                                                                                                                                                                                                 
20263919808DNI000000000000263919800CO11000000000000000037000000000202206                                                                                                                                                                                                                                 
20220978436DNI000000000000220978430CO11000000000000000070000000000202206                                                                                                                                                                                                                                 
27342948273DNI000000000000342948270COI5000000000000000001000000001202206                                                                                                                                                                                                                                 
20276646487DNI000000000000276646480CO11000000015000000055000000000202206                                                                                                                                                                                                                                 
20284904746DNI000000000000284904740CO11000000000000000065000000000202206                                                                                                                                                                                                                                 
20305468933DNI000000000000305468930CO11000000000000000007000000000202206                                                                                                                                                                                                                                 
20313183794DNI000000000000313183790CO11000000007000000014000000000202206                                                                                                                                                                                                                                 
20372024357DNI000000000000372024350CO11000000000000000009000000000202206                                                                                                                                                                                                                                 
27376645644DNI000000000000376645640CO11000000000000000018000000000202206                                                                                                                                                                                                                                 
27248655963DNI000000000000248655960CO11000000000000000037000000000202206                                                                                                                                                                                                                                 
27172812665DNI000000000000172812660CO11000000000000000035000000000202206                                                                                                                                                                                                                                 
23184076454DNI000000000000184076450CO11000000000000000028000000000202206                                                                                                                                                                                                                                 
27260454469DNI000000000000260454460COI5000000000000000011000000011202206                                                                                                                                                                                                                                 
27217376802DNI000000000000217376800CO11000000000000000021000000000202206                                                                                                                                                                                                                                 
23246935424DNI000000000000246935420CO11000000000000000014000000000202206                                                                                                                                                                                                                                 
23233597279DNI000000000000233597270CO11000000000000000012000000000202206                                                                                                                                                                                                                                 
27144587788DNI000000000000144587780CO11000000000000000016000000000202206                                                                                                                                                                                                                                 
20147192151DNI000000000000147192150CO11000000000000000035000000000202206                                                                                                                                                                                                                                 
27165782998DNI000000000000165782990CO11000000000000000026000000000202206                                                                                                                                                                                                                                 
           DNI000000000000107894350COI5000000000000000000000000000202206                                                                                                                                                                                                                                 
27121749799DNI000000000000121749790CO53000000007000000028000000021202206                                                                                                                                                                                                                                 
27139414891DNI000000000000139414890CO11000000000000000024000000000202206                                                                                                                                                                                                                                 
27142120726DNI000000000000142120720CO11000000000000000005000000000202206                                                                                                                                                                                                                                 
27148802837DNI000000000000148802830CO11000000000000000006000000000202206                                                                                                                                                                                                                                 
20142124360DNI000000000000142124360CO11000000002000000003000000000202206                                                                                                                                                                                                                                 
27160298001DNI000000000000160298000CO11000000000000000033000000000202206                                                                                                                                                                                                                                 
27140984367DNI000000000000140984360CO11000000000000000025000000000202206                                                                                                                                                                                                                                 
20224274050DNI000000000000224274050CO11000000000000000036000000000202206                                                                                                                                                                                                                                 
           DNI000000000000147977920COI5000000000000000002000000002202206                                                                                                                                                                                                                                 
27177293305DNI000000000000177293300CO11000000000000000073000000000202206                                                                                                                                                                                                                                 
20205483145DNI000000000000205483140CO11000000000000000006000000000202206                                                                                                                                                                                                                                 
           DNI000000000000219197100COI5000000000000000001000000001202206                                                                                                                                                                                                                                 
27107629160DNI000000000000107629160CO11000000000000000046000000000202206                                                                                                                                                                                                                                 
27178802157DNI000000000000178802150CO11000000000000000045000000000202206                                                                                                                                                                                                                                 
23209211009DNI000000000000209211000CO11000000000000000035000000000202206                                                                                                                                                                                                                                 
           DNI000000000000208564160COI5000000000000000003000000003202206                                                                                                                                                                                                                                 
20182241394DNI000000000000182241390CO11000000000000000006000000000202206                                                                                                                                                                                                                                 
           DNI000000000000180635620COI5000000000000000002000000002202206                                                                                                                                                                                                                                 
27122487410DNI000000000000122487410CO11000000000000000062000000000202206                                                                                                                                                                                                                                 
27202248638DNI000000000000202248630CO11000000000000000077000000000202206                                                                                                                                                                                                                                 
20168325054DNI000000000000168325050CO11000000000000000046000000000202206                                                                                                                                                                                                                                 
23136915649DNI000000000000136915640CO11000000000000000026000000000202206                                                                                                                                                                                                                                 
20224273720DNI000000000000224273720CO11000000000000000097000000000202206                                                                                                                                                                                                                                 
20222027846DNI000000000000222027840CO11000000000000000007000000000202206                                                                                                                                                                                                                                 
27180641551DNI000000000000180641550CO11000000000000000010000000000202206                                                                                                                                                                                                                                 
20224271868DNI000000000000224271860CO11000000003000000017000000000202206                                                                                                                                                                                                                                 
23175617094DNI000000000000175617090CO11000000000000000004000000000202206                                                                                                                                                                                                                                 
23205438114DNI000000000000205438110CO11000000000000000063000000000202206                                                                                                                                                                                                                                 
20174912859DNI000000000000174912850CO11000000000000000056000000000202206                                                                                                                                                                                                                                 
20164194869DNI000000000000164194860CO11000000000000000035000000000202206                                                                                                                                                                                                                                 
27255731624DNI000000000000255731620COI5000000000000000010000000010202206                                                                                                                                                                                                                                 
20229599241DNI000000000000229599240CO11000000000000000114000000000202206                                                                                                                                                                                                                                 
27216005452DNI000000000000216005450CO11000000000000000047000000000202206                                                                                                                                                                                                                                 
27202115727DNI000000000000202115720CO11000000000000000062000000000202206                                                                                                                                                                                                                                 
24222117476DNI000000000000222117470CO11000000000000000048000000000202206                                                                                                                                                                                                                                 
27215410965DNI000000000000215410960CO11000000000000000103000000000202206                                                                                                                                                                                                                                 
20160729164DNI000000000000160729160CO11000000000000000070000000000202206                                                                                                                                                                                                                                 
27243363174DNI000000000000243363170CO11000000000000000033000000000202206                                                                                                                                                                                                                                 
27250266869DNI000000000000250266860CO11000000000000000028000000000202206                                                                                                                                                                                                                                 
20187931283DNI000000000000187931280CO11000000000000000028000000000202206                                                                                                                                                                                                                                 
27239567369DNI000000000000239567360CO11000000000000000075000000000202206                                                                                                                                                                                                                                 
27247505143DNI000000000000247505140CO11000000000000000028000000000202206                                                                                                                                                                                                                                 
27230326733DNI000000000000230326730CO11000000000000000021000000000202206                                                                                                                                                                                                                                 
27263241172DNI000000000000263241170CO11000000000000000019000000000202206                                                                                                                                                                                                                                 
23243188199DNI000000000000243188190CO11000000000000000014000000000202206                                                                                                                                                                                                                                 
27248614078DNI000000000000248614070CO11000000000000000103000000000202206                                                                                                                                                                                                                                 
23165782674DNI000000000000165782670CO11000000000000000006000000000202206                                                                                                                                                                                                                                 
20268703846DNI000000000000268703840CO11000000000000000032000000000202206                                                                                                                                                                                                                                 
23233595454DNI000000000000233595450COI5000000000000000001000000001202206                                                                                                                                                                                                                                 
27218653281DNI000000000000218653280CO11000000011000000039000000000202206                                                                                                                                                                                                                                 
20241856268DNI000000000000241856260CO11000000000000000025000000000202206                                                                                                                                                                                                                                 
20242403186DNI000000000000242403180CO11000000000000000028000000000202206                                                                                                                                                                                                                                 
27237978450DNI000000000000237978450CO11000000000000000035000000000202206                                                                                                                                                                                                                                 
           DNI000000000000202116300COI5000000000000000003000000003202206                                                                                                                                                                                                                                 
27241740159DNI000000000000241740150CO11000000000000000011000000000202206                                                                                                                                                                                                                                 
27235121617DNI000000000000235121610CO11000000000000000021000000000202206                                                                                                                                                                                                                                 
20268557238DNI000000000000268557230CO11000000000000000069000000000202206                                                                                                                                                                                                                                 
           DNI000000000000145697270COI5000000000000000006000000006202206                                                                                                                                                                                                                                 
27202378477DNI000000000000202378470CO11000000000000000046000000000202206                                                                                                                                                                                                                                 
20266636254DNI000000000000266636250CO11000000000000000010000000000202206                                                                                                                                                                                                                                 
20222473358DNI000000000000222473350CO11000000000000000056000000000202206                                                                                                                                                                                                                                 
27237420484DNI000000000000237420480CO11000000000000000023000000000202206                                                                                                                                                                                                                                 
27121899847DNI000000000000121899840CO11000000000000000013000000000202206                                                                                                                                                                                                                                 
           DNI000000000000248614330COI5000000000000000001000000001202206                                                                                                                                                                                                                                 
27121748512DNI000000000000121748510CO11000000000000000051000000000202206                                                                                                                                                                                                                                 
23223235174DNI000000000000223235170CO11000000000000000018000000000202206                                                                                                                                                                                                                                 
27217379445DNI000000000000217379440CO11000000000000000028000000000202206                                                                                                                                                                                                                                 
27142609350DNI000000000000142609350CO11000000000000000026000000000202206                                                                                                                                                                                                                                 
27213536066DNI000000000000213536060CO11000000000000000013000000000202206                                                                                                                                                                                                                                 
23209212404DNI000000000000209212400CO11000000000000000056000000000202206                                                                                                                                                                                                                                 
27257006331DNI000000000000257006330CO11000000000000000056000000000202206                                                                                                                                                                                                                                 
27275531117DNI000000000000275531110CO11000000000000000004000000000202206                                                                                                                                                                                                                                 
23263240464DNI000000000000263240460CO11000000000000000028000000000202206                                                                                                                                                                                                                                 
           DNI000000000000262904940COI5000000000000000002000000002202206                                                                                                                                                                                                                                 
27263244988DNI000000000000263244980CO11000000000000000005000000000202206                                                                                                                                                                                                                                 
27187812130DNI000000000000187812130CO11000000000000000019000000000202206                                                                                                                                                                                                                                 
23187632714DNI000000000000187632710CO11000000000000000024000000000202206                                                                                                                                                                                                                                 
27142695788DNI000000000000142695780CO11000000000000000056000000000202206                                                                                                                                                                                                                                 
23243362784DNI000000000000243362780COI5000000000000000002000000002202206                                                                                                                                                                                                                                 
27285183788DNI000000000000285183780CO11000000000000000077000000000202206                                                                                                                                                                                                                                 
27281562156DNI000000000000281562150CO11000000000000000010000000000202206                                                                                                                                                                                                                                 
23268703489DNI000000000000268703480CO11000000000000000014000000000202206                                                                                                                                                                                                                                 
           DNI000000000000222426120COI5000000000000000001000000001202206                                                                                                                                                                                                                                 
           DNI000000000000000000000COI5000000000000000001000000001202206                                                                                                                                                                                                                                 
27227438830DNI000000000000227438830COI5000000000000000004000000004202206                                                                                                                                                                                                                                 
20215168485DNI000000000000215168480CO11000000000000000084000000000202206                                                                                                                                                                                                                                 
           DNI000000000000243362700COI5000000000000000003000000003202206                                                                                                                                                                                                                                 
27278426128DNI000000000000278426120CO53000000000000000014000000014202206                                                                                                                                                                                                                                 
20227252333DNI000000000000227252330CO11000000000000000036000000000202206                                                                                                                                                                                                                                 
20240044383DNI000000000000240044380CO11000000000000000056000000000202206                                                                                                                                                                                                                                 
27256020470DNI000000000000256020470CO11000000000000000061000000000202206                                                                                                                                                                                                                                 
20243361436DNI000000000000243361430CO11000000000000000006000000000202206                                                                                                                                                                                                                                 
27213951470DNI000000000000213951470CO11000000000000000014000000000202206                                                                                                                                                                                                                                 
27175376556DNI000000000000175376550CO11000000000000000014000000000202206                                                                                                                                                                                                                                 
20291094563DNI000000000000291094560CO11000000000000000100000000000202206                                                                                                                                                                                                                                 
27284903051DNI000000000000284903050CO32000000000000000003000000003202206                                                                                                                                                                                                                                 
27213534063DNI000000000000213534060CO11000000000000000014000000000202206                                                                                                                                                                                                                                 
23250267649DNI000000000000250267640CO11000000000000000028000000000202206                                                                                                                                                                                                                                 
27305026587DNI000000000000305026580CO11000000000000000023000000000202206                                                                                                                                                                                                                                 
27298483365DNI000000000000298483360CO21000000007000000026000000003202206                                                                                                                                                                                                                                 
23272754624DNI000000000000272754620CO11000000000000000023000000000202206                                                                                                                                                                                                                                 
20265207376DNI000000000000265207370CO11000000000000000042000000000202206                                                                                                                                                                                                                                 
20302029424DNI000000000000302029420CO11000000000000000021000000000202206                                                                                                                                                                                                                                 
27253752888DNI000000000000253752880CO11000000000000000014000000000202206                                                                                                                                                                                                                                 
27118191906DNI000000000000118191900CO11000000000000000016000000000202206                                                                                                                                                                                                                                 
20285582076DNI000000000000285582070CO11000000000000000014000000000202206                                                                                                                                                                                                                                 
20271431326DNI000000000000271431320CO11000000000000000048000000000202206                                                                                                                                                                                                                                 
27262900369DNI000000000000262900360CO11000000000000000092000000000202206                                                                                                                                                                                                                                 
27175618258DNI000000000000175618250CO11000000000000000042000000000202206                                                                                                                                                                                                                                 
20281563352DNI000000000000281563350CO11000000000000000029000000000202206                                                                                                                                                                                                                                 
23236550524DNI000000000000236550520CO11000000000000000073000000000202206                                                                                                                                                                                                                                 
20230969788DNI000000000000230969780CO11000000000000000023000000000202206                                                                                                                                                                                                                                 
27201686186DNI000000000000201686180CO11000000000000000057000000000202206                                                                                                                                                                                                                                 
27173290034DNI000000000000173290030CO11000000000000000028000000000202206                                                                                                                                                                                                                                 
20266656409DNI000000000000266656400CO11000000000000000013000000000202206                                                                                                                                                                                                                                 
20257465609DNI000000000000257465600COI5000000000000000002000000002202206                                                                                                                                                                                                                                 
27224272745DNI000000000000224272740CO11000000000000000063000000000202206                                                                                                                                                                                                                                 
